:100000000C942A000C9434000C9434000C943400AA
:100010000C9434000C9434000C9434000C94340090
:100020000C9434000C9434000C9434000C94340080
:100030000C9434000C9434000C9434000C94340070
:100040000C9434000C9434000C9434000C94340060
:100050000C94340011241FBECFE5D4E0DEBFCDBF29
:100060000E9436000C94D9010C940000CF93DF93CA
:10007000CDB7DEB760970FB6F894DEBF0FBECDBF29
:100080001A82198285C088E390E02981422F552782
:1000900047FD509521E030E002C0220F331F4A9502
:1000A000E2F7FC01208380E090E0AAEFB3E48B83C9
:1000B0009C83AD83BE8320E030E04AE753E46B814C
:1000C0007C818D819E810E944E01DC01CB018F835A
:1000D0009887A987BA8720E030E040E85FE36F8126
:1000E000788589859A850E94CD0088232CF481E04B
:1000F00090E09C878B873FC020E03FEF4FE757E4BD
:100100006F81788589859A850E944A0118164CF579
:1001100020E030E040E251E46B817C818D819E8162
:100120000E944E01DC01CB01BC01CD010E94D10037
:10013000DC01CB019C878B870FC089E190E09E8713
:100140008D878D859E850197F1F79E878D878B859D
:100150009C8501979C878B878B859C85009769F789
:1001600014C06F81788589859A850E94D100DC0151
:10017000CB019C878B878B859C85988B8F878F8500
:1001800098890197F1F7988B8F8789818F5F898391
:10019000898188300CF477CF74CF2FD008F481E0B8
:1001A000089557D088F09F5790F0B92F9927B751ED
:1001B000A0F0D1F0660F771F881F991F1AF0BA952B
:1001C000C9F712C0B13081F05ED0B1E008955BC0D4
:1001D000672F782F8827B85F39F0B93FCCF3869521
:1001E00077956795B395D9F73EF49095809570957E
:1001F00061957F4F8F4F9F4F0895990F0008550FBE
:10020000AA0BE0E8FEEF16161706E807F907C0F09C
:1002100012161306E407F50798F0621B730B840BA4
:10022000950B39F40A2661F0232B242B252B21F47E
:1002300008950A2609F4A140A6958FEF811D811D1E
:10024000089557FD9058440F551F59F05F3F71F0C6
:100250004795880F97FB991F61F09F3F79F087952D
:100260000895121613061406551FF2CF4695F1DFB6
:1002700008C0161617061806991FF1CF8695710546
:10028000610508940895E894BB2766277727CB017A
:1002900097F90895B2DF08F48FEF08950BD078C076
:1002A00069D028F06ED018F0952309F05AC05FC0CD
:1002B0001124EACFC6DFA0F3959FD1F3950F50E04C
:1002C000551F629FF001729FBB27F00DB11D639F08
:1002D000AA27F00DB11DAA1F649F6627B00DA11DAE
:1002E000661F829F2227B00DA11D621F739FB00D54
:1002F000A11D621F839FA00D611D221F749F3327C4
:10030000A00D611D231F849F600D211D822F762F5C
:100310006A2F11249F5750408AF0E1F088234AF059
:10032000EE0FFF1FBB1F661F771F881F91505040A5
:10033000A9F79E3F510570F014C0A6CF5F3FECF3C4
:10034000983EDCF3869577956795B795F795E79591
:100350009F5FC1F7FE2B880F911D9695879597F9A2
:10036000089597F99F6780E870E060E008959FEF37
:1003700080EC089500240A9416161706180609063C
:10038000089500240A94121613061406050608950B
:10039000092E0394000C11F4882352F0BB0F40F493
:1003A000BF2B11F460FF04C06F5F7F4F8F4F9F4FD3
:0603B0000895F894FFCF50
:00000001FF
