S01300006C65647368696674696E672E7372656380
S11300000C942A000C9434000C9434000C943400A6
S11300100C9434000C9434000C9434000C9434008C
S11300200C9434000C9434000C9434000C9434007C
S11300300C9434000C9434000C9434000C9434006C
S11300400C9434000C9434000C9434000C9434005C
S11300500C94340011241FBECFE5D4E0DEBFCDBF25
S11300600E9477000C947D000C9400009FEF97BBD6
S1130070882331F090E0F0E0E0E061E070E033C02C
S113008040E021E030E050E0C901042E02C0880FB6
S1130090991F0A94E2F788BB6FE986E891E0615002
S11300A080409040E1F700C000004F5F483060F3AB
S11300B0452FEACFAB01022E02C0440F551F0A940C
S11300C0E2F748BBAFE946E851E0A1504040504058
S11300D0E1F700C000002F5F3F4F2930310551F791
S11300E09F5F981719F02F2F3E2FE4CF089581E0DA
S11100F00E94360080E090E00895F894FFCF5F
S9030000FC
